:100000000C9434000C9451000C9451000C94510049
:100010000C9451000C9451000C9451000C94F90173
:100020000C94D4010C9451000C9451000C94430294
:100030000C941E020C9451000C948D020C946802D6
:100040000C9451000C9451000C94B2020C94510089
:100050000C94F7020C9451000C9451000C94510034
:100060000C9451000C94510011241FBECFEFD8E026
:10007000DEBFCDBF11E0A0E0B1E0E6EAFAE002C0E9
:1000800005900D92A431B107D9F722E0A4E1B1E0C7
:1000900001C01D92A13AB207E1F70E941C030C9423
:1000A00051050C940000FC018191882349F0909146
:1000B000C00095FD02C00000FACF8093C600F4CFC7
:1000C0000895E82FF0E0EE0FFF1FE45DFE4F019072
:1000D000F081E02D309709F009940895FF920F9375
:1000E0001F93CF93DF93F0901C0100911D0110919D
:1000F0001E01D0911F01C0912001B0912101F0910A
:100100002201E09123012F2D302F412F5D2F6C2FE5
:100110007B2F8F2F9E2FA0E00E94F90351F41092A5
:100120006E0014BC15BCDF91CF911F910F91FF9011
:100130000895AFEF0E94ED0320931C0130931D0141
:1001400040931E0150931F01609320017093210181
:100150008093220190932301E6CFFF920F931F9388
:10016000CF93DF93F0902401009125011091260197
:10017000D0912701C0912801B0912901F0912A0165
:10018000E0912B012F2D302F412F5D2F6C2F7B2FD6
:100190008F2F9E2FA0E00E94F90361F4109270004F
:1001A0001092B0001092B100DF91CF911F910F918A
:1001B000FF900895AFEF0E94ED0320932401309348
:1001C00025014093260150932701609328017093E5
:1001D000290180932A0190932B01E6CF2F923F9221
:1001E0004F925F926F927F928F929F92AF92BF9247
:1001F000CF92DF92EF92FF920F931F93CF93DF93F3
:10020000CDB7DEB72A970FB6F894DEBF0FBECDBFCD
:10021000A0901401B09015010091160110911701E2
:10022000809018019090190130901A0120901B01C4
:1002300065017801C982DA82EB82FC8291E080E07C
:10024000C114D104E104F10409F090E099878A8790
:10025000CD82DE82EF82F8869AE0492E512C612C05
:10026000712C8D819E81AF81B885892B8A2B8B2B38
:1002700091F0A985BA851196BA87A9876D817E818B
:100280008F819885A30192010E94CE032D833E8326
:100290004F835887E6CF7984612CF7FE0EC08827FC
:1002A0009927DC018C199D09AE09BF0989839A83BE
:1002B000AB83BC83739466246394E72CF12CC70151
:1002C00001960E9427048D839E83ED81FE81EE0DB1
:1002D000FF1D10828AE0C82ED12CE12CF12C772052
:1002E000A9F07A944D805E80470C511C69817A8117
:1002F0008B819C81A70196010E94CE03605DD20193
:100300006C9329833A834B835C83E9CF662021F089
:100310008DE2ED81FE8180838D819E810E9453005C
:100320008D819E810E94C00487E091E00E9453006D
:100330009501A801B401832D922DA0E00E94F9033C
:10034000F9F410926F0010928000109281002A96AA
:100350000FB6F894DEBF0FBECDBFDF91CF911F91D6
:100360000F91FF90EF90DF90CF90BF90AF909F9054
:100370008F907F906F905F904F903F902F90089557
:10038000AFEF0E94ED0320931401309315014093C9
:10039000160150931701609318017093190180930F
:1003A0001A0190931B01D3CF1F920F920FB60F9299
:1003B00011242F933F934F935F936F937F938F936A
:1003C0009F93AF93BF93EF93FF938EE00E946100E2
:1003D000FF91EF91BF91AF919F918F917F916F911D
:1003E0005F914F913F912F910F900FBE0F901F90F3
:1003F00018951F920F920FB60F9211242F933F93CF
:100400004F935F936F937F938F939F93AF93BF931C
:10041000EF93FF938DE00E946100FF91EF91BF91F8
:10042000AF919F918F917F916F915F914F913F918C
:100430002F910F900FBE0F901F9018951F920F9243
:100440000FB60F9211242F933F934F935F936F93A7
:100450007F938F939F93AF93BF93EF93FF9382E12B
:100460000E946100FF91EF91BF91AF919F918F9199
:100470007F916F915F914F913F912F910F900FBEA0
:100480000F901F9018951F920F920FB60F92112484
:100490002F933F934F935F936F937F938F939F938C
:1004A000AF93BF93EF93FF9381E10E946100FF91AF
:1004B000EF91BF91AF919F918F917F916F915F91DC
:1004C0004F913F912F910F900FBE0F901F90189555
:1004D0001F920F920FB60F9211242F933F934F93B9
:1004E0005F936F937F938F939F93AF93BF93EF939C
:1004F000FF9386E10E946100FF91EF91BF91AF9160
:100500009F918F917F916F915F914F913F912F912B
:100510000F900FBE0F901F9018951F920F920FB65D
:100520000F9211242F933F934F935F936F937F9379
:100530008F939F93AF93BF93EF93FF9385E10E94B7
:100540006100FF91EF91BF91AF919F918F917F914A
:100550006F915F914F913F912F910F900FBE0F9030
:100560001F9018951F920F920FB60F9211242F9380
:100570003F934F935F936F937F938F939F93AF932B
:10058000BF93EF93FF9380919C028E3F18F480916C
:100590000601811110929C028091C600E0919C029C
:1005A000F0E0E256FE4F8083E0919C02F0E0E256DC
:1005B000FE4F8081882339F01092060180919C02C1
:1005C0008F5F80939C0289E10E946100FF91EF910F
:1005D000BF91AF919F918F917F916F915F914F915B
:1005E0003F912F910F900FBE0F901F9018951F9263
:1005F0000F920FB60F9211242F933F934F935F9357
:100600006F937F938F939F93AF93BF93EF93FF93DA
:100610008BE10E946100FF91EF91BF91AF919F919B
:100620008F917F916F915F914F913F912F910F909B
:100630000FBE0F901F90189590E080E0FC01E256ED
:10064000FE4F108201968E3F9105C1F782E08093A4
:10065000C00080E18093C4001092C5008091C10069
:1006600080698093C1008091C10088648093C1003B
:10067000C6E0C093C2008FEF84B98AB987B98AE017
:1006800091E00E9453002FEF83ED90E321508040D2
:100690009040E1F700C000008CE091E00E94530020
:1006A00087E091E00E94530018B820EA20932401CB
:1006B00096E89093250181E080932601109227010E
:1006C000109228011092290110922A0110922B01F8
:1006D000F8943091B00032613093B000C093B10013
:1006E000309170003460309370004DEA50E05093C8
:1006F00049014093480158E25093B3007894209305
:100700001C0190931D0180931E0110921F011092F5
:100710002001109221011092220110922301F894DD
:1007200034B5326434BD44E045BD30916E00326072
:1007300030936E006EE670E070935701609356013F
:1007400057BD78942093140190931501809316015E
:1007500010921701109218011092190110921A01AB
:1007600010921B01F894809180008864809380002F
:100770004093810084E090E090938900809388000A
:1007800080916F00826080936F008EEE90E0909376
:100790004F0180934E0178940000FECF052E97FB09
:1007A0001EF400940E94E50357FD07D00E94050443
:1007B00007FC03D04EF40C94E5035095409530951A
:1007C00021953F4F4F4F5F4F0895909580957095BD
:1007D00061957F4F8F4F9F4F08950024A7FD009490
:1007E0002A0F301D401D501D601D701D801D901D65
:1007F00008950024A7FD00942A17300540055005F0
:1008000060057005800590050895A1E21A2EAA1BC7
:10081000BB1BFD010DC0AA1FBB1FEE1FFF1FA217B0
:10082000B307E407F50720F0A21BB30BE40BF50BAD
:10083000661F771F881F991F1A9469F76095709536
:10084000809590959B01AC01BD01CF0108950F9358
:100850001F93CF93DF938230910510F482E090E0F4
:10086000E0919F02F091A00230E020E0B0E0A0E033
:10087000309799F42115310509F447C0281B390B2D
:1008800024303105C0F58A819B816115710571F1B4
:10089000FB0193838283FE0111C04081518102815B
:1008A000138148175907F8F04817590799F410971A
:1008B00061F012960C93129713961C933296CF0107
:1008C000DF91CF911F910F91089500939F02109394
:1008D000A002F4CF2115310519F04217530718F47F
:1008E0009A01BD01EF01DF01F801C2CF9093A00290
:1008F00080939F02D0CFFE01E20FF31F819391936B
:100900002250310939832883DACF20919D0230911A
:100910009E02232B41F42091020130910301309378
:100920009E0220939D02209100013091010121152A
:10093000310541F42DB73EB74091040150910501B6
:10094000241B350BE0919D02F0919E02E217F30704
:10095000A0F42E1B3F0B2817390778F0AC014E5F2F
:100960005F4F2417350748F04E0F5F1F50939E02CC
:1009700040939D0281939193A2CFF0E0E0E09FCF5E
:10098000CF93DF930097E9F0FC0132971382128234
:10099000C0919F02D091A002DE0130E020E02097BC
:1009A000A1F420813181820F931F20919D0230910B
:1009B0009E022817390709F067C0F0939E02E09362
:1009C0009D02DF91CF910895DA01AE17BF0708F0BD
:1009D00040C012964D915C9113979D0141155105B0
:1009E00099F7D9011396FC93EE9312974D915D916F
:1009F000A40FB51FEA17FB0779F480819181029655
:100A0000840F951FD90111969C938E9382819381B7
:100A100013969C938E931297B0E0A0E08A819B81FD
:100A20000097B9F5FE0181919191E80FF91F80912E
:100A30009D0290919E028E179F0719F6109761F5FF
:100A40001092A00210929F02D0939E02C0939D022A
:100A5000B8CFB383A28340815181840F951FA8171B
:100A6000B90771F44E5F5F4F8D919C911197480FBC
:100A7000591F5183408312968D919C919383828359
:100A80002115310509F0ADCFF093A002E0939F024C
:100A900098CFDE01EC01C2CF13961C921E921297E2
:060AA000D3CFF894FFCF54
:100AA6000000A1022000010D0A003E0053544152ED
:040AB600544544005F
:00000001FF
