:100000000C9435000C945D000C945D000C945D0024
:100010000C945D000C945D000C945D000C945D00EC
:100020000C945D000C945D000C945D000C945D00DC
:100030000C945D000C945D000C945D000C945D00CC
:100040000C945D000C945D000C9481000C945D0098
:100050000C94AF000C945D000C945D000C945D005A
:100060000C945D000C945D00B00011241FBECFEF16
:10007000D8E0DEBFCDBF11E0A0E0B1E0EEE8F2E0F5
:1000800002C005900D92A230B107D9F722E0A2E09C
:10009000B1E001C01D92A133B207E1F710E0C5E362
:1000A000D0E004C02197FE010E943F01C433D10774
:1000B000C9F70E94DB000C9445010C940000FC0180
:1000C00082818823D9F02081E22FE695E695E69596
:1000D00083E0E89FF001112435A1277081E090E0D2
:1000E000022E01C0880F0A94EAF78095832301C08D
:1000F000660F2A95EAF7682B65A3089581E06827C3
:10010000E2CF1F921FB61F9211248F93EF93FF939C
:10011000809130028E3F18F480910001811110927D
:1001200030028091C600E0913002F0E0EE5CFE4FBC
:100130008083E0913002F0E0EE5CFE4F8081882306
:1001400039F010920001809130028F5F809330026D
:10015000FF91EF918F911F901FBE1F9018951895DA
:10016000E2E2F1E012821382168217821086118673
:10017000128613861486158617861686E2E1F1E04C
:1001800012821382168217821086118612861386B7
:100190001486158617861686E2E0F1E01282138235
:1001A000168217821086118612861386148615868B
:1001B00017861686089590E080E0FC01EE5CFE4F05
:1001C000108201968E3F9105C1F782E08093C000B6
:1001D00080E18093C4001092C5008091C1008069C5
:1001E0008093C1008091C10088648093C10086E043
:1001F0008093C20082E18093220186B186B985E1B5
:100200008093120186B186B91092020184B184B93B
:1002100010922401109214011092040161E082E214
:1002200091E00E945F0061E082E191E00E945F0046
:1002300061E082E091E00E945F002FEF8BE49DE19E
:10024000215080409040E1F700C0000060E082E271
:1002500091E00E945F0060E082E191E00E945F0017
:1002600060E082E091E00E945F002FEF8BE49DE16F
:10027000215080409040E1F700C00000CFCFEE0F4A
:0E028000FF1F0590F491E02D0994F894FFCF34
:02028E0001006D
:00000001FF
