:100000000C9434000C9451000C9451000C94510049
:100010000C9451000C9451000C9451000C941D014F
:100020000C94F8000C9451000C9451000C9467014E
:100030000C9442010C9451000C94B1010C948C016D
:100040000C9451000C9451000C94D6010C94510066
:100050000C941B020C9451000C9451000C94510010
:100060000C9451000C94510011241FBECFEFD8E026
:10007000DEBFCDBF11E0A0E0B1E0ECE0F8E002C0EF
:1000800005900D92A231B107D9F722E0A2E1B1E0CB
:1000900001C01D92AF38B207E1F70E9440020C94F4
:1000A00004040C940000FC018191882349F0909194
:1000B000C00095FD02C00000FACF8093C600F4CFC7
:1000C0000895E82FF0E0EE0FFF1FE65EFE4F01906F
:1000D000F081E02D309709F0099408955F926F92B6
:1000E0007F928F929F92AF92BF92CF92DF92EF92C8
:1000F000FF920F931F93CF93DF93C0901201D09084
:100100001301609014017090150180901601909079
:100110001701A0901801B0901901C6017C0151E0AF
:1001200040E0009709F050E0052F142FEAE0F0E0DE
:10013000009739F00F5F1F4FBF010E949A02CB0159
:10014000F7CF502E1127C80101960E94DA02EC0168
:10015000FC01E00FF11F10822AE030E0552061F031
:100160005A94FE01E50DF11DC701B9010E949A02E2
:10017000805D80837B01F2CFCE010E945300CE01CF
:100180000E94730387E091E00E9453009601A3014F
:10019000B401C501A0E00E94BA02B1F410926F0050
:1001A0001092800010928100DF91CF911F910F91EA
:1001B000FF90EF90DF90CF90BF90AF909F908F9087
:1001C0007F906F905F900895AFEF0E94AE022093F2
:1001D0001201309313014093140150931501609361
:1001E0001601709317018093180190931901DCCFC9
:1001F0001F920F920FB60F9211242F933F934F939C
:100200005F936F937F938F939F93AF93BF93EF937E
:10021000FF938EE00E946100FF91EF91BF91AF913B
:100220009F918F917F916F915F914F913F912F910E
:100230000F900FBE0F901F9018951F920F920FB640
:100240000F9211242F933F934F935F936F937F935C
:100250008F939F93AF93BF93EF93FF938DE00E9493
:100260006100FF91EF91BF91AF919F918F917F912D
:100270006F915F914F913F912F910F900FBE0F9013
:100280001F9018951F920F920FB60F9211242F9363
:100290003F934F935F936F937F938F939F93AF930E
:1002A000BF93EF93FF9382E10E946100FF91EF9172
:1002B000BF91AF919F918F917F916F915F914F917E
:1002C0003F912F910F900FBE0F901F9018951F9286
:1002D0000F920FB60F9211242F933F934F935F937A
:1002E0006F937F938F939F93AF93BF93EF93FF93FE
:1002F00081E10E946100FF91EF91BF91AF919F91C9
:100300008F917F916F915F914F913F912F910F90BE
:100310000FBE0F901F9018951F920F920FB60F925D
:1003200011242F933F934F935F936F937F938F93FA
:100330009F93AF93BF93EF93FF9386E10E94610079
:10034000FF91EF91BF91AF919F918F917F916F91AD
:100350005F914F913F912F910F900FBE0F901F9083
:1003600018951F920F920FB60F9211242F933F935F
:100370004F935F936F937F938F939F93AF93BF93AD
:10038000EF93FF9385E10E946100FF91EF91BF9190
:10039000AF919F918F917F916F915F914F913F911D
:1003A0002F910F900FBE0F901F9018951F920F92D4
:1003B0000FB60F9211242F933F934F935F936F9338
:1003C0007F938F939F93AF93BF93EF93FF9380910E
:1003D0008A028E3F18F480910601811110928A02E0
:1003E0008091C600E0918A02F0E0E457FE4F8083DE
:1003F000E0918A02F0E0E457FE4F8081882339F0D3
:100400001092060180918A028F5F80938A0289E1AF
:100410000E946100FF91EF91BF91AF919F918F91E9
:100420007F916F915F914F913F912F910F900FBEF0
:100430000F901F9018951F920F920FB60F921124D4
:100440002F933F934F935F936F937F938F939F93DC
:10045000AF93BF93EF93FF938BE10E946100FF91F5
:10046000EF91BF91AF919F918F917F916F915F912C
:100470004F913F912F910F900FBE0F901F901895A5
:1004800090E080E0FC01E457FE4F108201968E3F21
:100490009105C1F782E08093C00080E18093C400A1
:1004A0001092C5008091C10080698093C100809145
:1004B000C10088648093C10086E08093C2008FEF02
:1004C00084B98AB987B98AE091E00E94530087E035
:1004D00091E00E94530088E388B988EE809312016E
:1004E00083E0809313011092140110921501109271
:1004F0001601109217011092180110921901F89428
:10050000809180008B658093800085E080938100DE
:1005100080916F00826080936F008EE690E09093F0
:100520003D0180933C011092880081E08093890016
:100530007894FFCF97FB072E16F4009407D077FD31
:1005400009D00E94C60207FC05D03EF49095819523
:100550009F4F0895709561957F4F08950024A7FDE2
:1005600000942A0F301D401D501D601D701D801D00
:10057000901D08950024A7FD00942A17300540051A
:10058000500560057005800590050895AA1BBB1BEA
:1005900051E107C0AA1FBB1FA617B70710F0A61B83
:1005A000B70B881F991F5A95A9F780959095BC01A4
:1005B000CD0108950F931F93CF93DF938230910560
:1005C00010F482E090E0E0918D02F0918E0230E034
:1005D00020E0B0E0A0E0309799F42115310509F44E
:1005E00047C0281B390B24303105C0F58A819B8117
:1005F0006115710571F1FB0193838283FE0111C0C6
:10060000408151810281138148175907F8F048173A
:10061000590799F4109761F012960C93129713965C
:100620001C933296CF01DF91CF911F910F910895C6
:1006300000938D0210938E02F4CF2115310519F02D
:100640004217530718F49A01BD01EF01DF01F801C9
:10065000C2CF90938E0280938D02D0CFFE01E20F25
:10066000F31F819391932250310939832883DACF84
:1006700020918B0230918C02232B41F420910201B6
:100680003091030130938C0220938B022091000162
:10069000309101012115310541F42DB73EB740914C
:1006A000040150910501241B350BE0918B02F09160
:1006B0008C02E217F307A0F42E1B3F0B2817390713
:1006C00078F0AC014E5F5F4F2417350748F04E0FAE
:1006D0005F1F50938C0240938B0281939193A2CF22
:1006E000F0E0E0E09FCFCF93DF930097E9F0FC01CB
:1006F000329713821282C0918D02D0918E02DE0158
:1007000030E020E02097A1F420813181820F931FF7
:1007100020918B0230918C022817390709F067C0AD
:10072000F0938C02E0938B02DF91CF910895DA0170
:10073000AE17BF0708F040C012964D915C91139719
:100740009D014115510599F7D9011396FC93EE933C
:1007500012974D915D91A40FB51FEA17FB0779F42D
:10076000808191810296840F951FD90111969C93E7
:100770008E938281938113969C938E931297B0E00F
:10078000A0E08A819B810097B9F5FE01819191914A
:10079000E80FF91F80918B0290918C028E179F07B2
:1007A00019F6109761F510928E0210928D02D09377
:1007B0008C02C0938B02B8CFB383A2834081518156
:1007C000840F951FA817B90771F44E5F5F4F8D9185
:1007D0009C911197480F591F5183408312968D9118
:1007E0009C91938382832115310509F0ADCFF0935D
:1007F0008E02E0938D0298CFDE01EC01C2CF1396FA
:0C0800001C921E921297D3CFF894FFCFE9
:10080C0000008F022000010D0A0053544152544540
:02081C00440096
:00000001FF
