:100000000C9435000C945D000C945D000C945D0024
:100010000C945D000C945D000C945D000C946E00DB
:100020000C946D000C945D000C945D000C947000B9
:100030000C946F000C945D000C9472000C94710091
:100040000C945D000C945D000C9473000C945D00A6
:100050000C94A1000C945D000C945D000C945D0068
:100060000C945D000C945D00A20011241FBECFEF24
:10007000D8E0DEBFCDBF11E0A0E0B1E0E4E1F2E006
:1000800002C005900D92AA30B107D9F722E0AAE08C
:10009000B1E001C01D92A933B207E1F710E0C5E35A
:1000A000D0E004C02197FE010E940201C433D107B1
:1000B000C9F70E94CD000C9408010C940000FC01CB
:1000C0008191882349F09091C00095FD02C0000005
:1000D000FACF8093C600F4CF089518951895189517
:1000E0001895189518951F921FB61F9211248F937B
:1000F000EF93FF93809138028E3F18F480910001B6
:100100008111109238028091C600E0913802F0E02F
:10011000E65CFE4F8083E0913802F0E0E65CFE4F43
:100120008081882339F010920001809138028F5F1E
:1001300080933802FF91EF918F911F901FBE1F9007
:1001400018951895EAE2F1E012821382168217825E
:1001500010861186128613861486158617861686D3
:10016000EAE1F1E01282138216821782108611866C
:10017000128613861486158617861686EAE0F1E045
:1001800012821382168217821086118612861386B7
:10019000148615861786168608958FEF8AB990E023
:1001A00080E0FC01E65CFE4F108201968E3F9105D7
:1001B000C1F782E08093C00080E18093C400109278
:1001C000C5008091C10080698093C1008091C10009
:1001D00088648093C10086E08093C20081E091E052
:1001E0000E945F0087E091E00E945F008091B00074
:1001F00082618093B00087E08093B1008FEF80939D
:10020000B300FFCFEE0FFF1F0590F491E02D09948E
:04021000F894FFCF90
:0A021400014141414141000D0A0083
:00000001FF
